:02000000992D38
:100B3200CB271930A300A401AD01FF30AC00B101F5
:100B4200B201A501A60183120313342693261F15B1
:100B52001F19A92D83161E088312A2000310A20CCE
:100B6200051DB52D8926B62DA50122082302031CD9
:100B7200C22D23082202031CBF2DC52D8514051189
:100B8200C72D85100515C72D85100511AD08031D4C
:100B9200F62D3108003A0319D62D3108013A03190E
:100BA200E42D3108023A0319E62D2308A800A70113
:100BB2000A302802031CE02DA800A70AD92D240818
:100BC200A900AA01072E2208E82D2508E82DA80071
:100BD200A701A901AA010A302802031CF32DA800CB
:100BE200A70AEC2D3108AA00072E2D08013A031995
:100BF200022E2E08A7002F08A8003008A900AA017B
:100C0200072EA701A801A901AA01072E0F30A100F2
:100C120027089D2788000714EE27071028089D271C
:100C2200803888008714EE27871029089D278800BE
:100C32000715EE2707112A089D2788008715EE273A
:100C42008711A10B092EAD08031D332EB20A3208FB
:100C5200643C031D332EB201B10A3108033C031D6B
:100C6200332EB101A42D031383128C1E862E03137F
:100C7200831298187D2E031383121A08831203130A
:100C8200B300B31B682E3308013A0319592E3308F7
:100C9200023A03195C2E3308033A03195F2E330814
:100CA200043A0319622E3308053A0319652E862E7B
:100CB2002408F427862E2308F427862E0030F427F2
:100CC200862E2208F427862E2508F427862E331B2B
:100CD2006E2E33083F39A400862E33083F39A30015
:100CE2000A302302031C7A2E3330230203187A2E91
:100CF200862E1930A300862E03138312181218169B
:100D0200031383121A0883120313831203130800B6
:100D1200A60A2608323C031D08000108A50081012D
:100D2200A60108009C262C08FF3A031908003F2759
:100D3200FF30AC000800FF30AC00FE3086003427E4
:100D4200061ECB2E861ECF2E061FD32E861FD72E13
:100D5200FD3086003427061EDB2E861EDF2E061F80
:100D6200E32E861FE72EFB3086003427061EEB2E6D
:100D7200861EEF2E061FF32E861FF72EF7308600F3
:100D82003427061EFB2E861EFF2E061F032F861FEC
:100D9200072F08000130AC000B2708000230AC001E
:100DA2000B2708000330AC000B2708000A30AC0008
:100DB2000B2708000430AC000B2708000530AC00FC
:100DC2000B2708000630AC000B2708000B30AC00E4
:100DD2000B2708000730AC000B2708000830AC00D6
:100DE2000B2708000930AC000B2708000C30AC00C0
:100DF2000B2708000E30AC000B2708000030AC00B7
:100E02000B2708000F30AC000B2708000D30AC0098
:100E12000B2708003230A10027089D2788000714FD
:100E2200EE27071028089D27803888008714EE27B0
:100E3200871029089D2788000715EE2707112A0821
:100E42009D2788008715EE278711A10B0D2FFF30F4
:100E520086003427061E282F861E282F061F282FBD
:100E6200861F282F0800000000000000000000007C
:100E72000000000000000000000008002C080A3AF0
:100E820003195F2F2C080F3A03197D2F2C080E3AF5
:100E92000319712F2C08093C031C0800AD08031923
:100EA20008002D08013A0319652F2D08023A03198B
:100EB2006C2F2D08043A0319782F08000130AD0079
:100EC200AE01AF01B00108002C08AE00AF01B001C5
:100ED2000230AD0008002C08AF000330AD0008005E
:100EE2002D08013C031808000430AD0008002C084E
:100EF200B0000530AD0008002D08013C03180800C1
:100F0200A3012E08A00003198A2F0A30A307A00B01
:100F1200862F2F08A3070A302302031C982F333091
:100F220023020318982F3008A400AD0108001930DD
:100F3200A300A401AD010800AB002B08003A03197D
:100F42003F342B08013A031906342B08023A0319DD
:100F52005B342B08033A03194F342B08043A031964
:100F620066342B08053A03196D342B08063A031927
:100F72007D342B08073A031907342B08083A031962
:100F82007F342B08093A03196F342B080A3A0319E4
:100F920040340034831611308500F03086008030F2
:100FA200870088018E309F00A8308100831285015E
:100FB20087018801FF30860081309F008101031381
:100FC200831619309900243098000313831290304D
:100FD200980083120313EE270800C830A000000017
:100FE200A00BF02F0800B40003138316981CF52FF2
:0E0FF2000313831234089900831203130800BE
:02400E00713F00
:00000001FF
