:020000040000FA
:1000000001288316031304309F008316031305147D
:10001000851483160313860183160313880189014F
:100020008312031381309F0083120313860188011A
:100030008901A601A801A901B0016430A5003230F0
:10004000B4001930B700B8010330B900F530BA0078
:10005000BB01BC01BD01B6010A215321E920662183
:100060003A204D207520B40B38283230B400A1203E
:1000700040212F289F121F129F113B211F151F196E
:100080003F281E08A3009F121F129F153B211F151A
:100090001F1948281E08A40008003608031D080080
:1000A00023082502031855285A280330AA00E830EF
:1000B000AB000800AA012408AB000310AB0DAA0D89
:1000C0000310AB0DAA0D2A08033C031C70282A0854
:1000D000033A031D0800E8302B02031C70280800B7
:1000E0000330AA00E830AB00080028082A06031DE8
:1000F0007D2829082B060319080029082B02280847
:10010000031C013E2A02031C8A289220A90A031913
:10011000A80A0800902029080319A803A9030800C9
:10012000A60A9328A603260803399C20A7000608E0
:10013000F0392704860008008207013402340434B1
:100140000834C0301D212308CE202E302021230862
:100150000739303E20214C30202120302021AE01B3
:10016000AF012908AD002808AC002C08031DBC28ED
:100170000A302D02031CC2280A30AD02031CAC0356
:10018000AE0AB5282D08AF002E08CE202E30202133
:100190002F08303E2021253020210800B300B10176
:1001A000B20164303302031CD828B300B10AD1284D
:1001B0000A303302031CDF28B300B20AD828310802
:1001C000303E20213208303E20213308303E2021AD
:1001D000080080301D212B30202132302021353085
:1001E00020212E302021303020212030202143308A
:1001F0002021203020213130202130302021313089
:1002000020213330202168302021503020216130DE
:10021000202108004E218613033032210330322181
:10022000033032210230322128301D210C301D21B3
:1002300006301D2101301D210800A00009102329CE
:10024000A0000914232986132008F0398800891496
:1002500000008910200EF0398800891400008910F0
:1002600049210800A100210EF039880089140000FE
:1002700089104E2108000A30A100A10B3D29080079
:100280003230A200FF30A100A10B4429A20B422969
:1002900008000A30A100A10B4B2908006430A1001E
:1002A000A10B502908008316031387170713831621
:1002B0000313193099008316031324309800831216
:1002C0000313903098008312031308008312031362
:1002D0008C1EEA29831203139818E2298312031350
:1002E0001A0883120313B500B51BBD293508013A5E
:1002F000031997293508023A03199C293508033A4E
:100300000319A1293508043A0319A6293508053A25
:100310000319AB293508063A0319B0293508073AFD
:100320000319B5293508083A0319B829EA298312AF
:1003300003132F08ED21EA29831203132E08ED2160
:10034000EA29831203133808ED21EA2983120313E3
:100350003708ED21EA29831203133B08ED21EA292E
:10036000831203133A08ED21EA290030ED21EA292E
:10037000831203132308ED21EA29351BC32935080D
:100380003F39BD00EA2935083F39BC00AC01AD005A
:100390000310AD0DAC0D2D08AB002C08AA00031006
:1003A000AD0DAC0D0310AD0DAC0D2B08AD07031852
:1003B000AC0A2A08AC072D08AB002C08AA000130B3
:1003C000B600EA29831203131812181683120313B6
:1003D0001A08EA2983120313080083160313981CD2
:0E03E000EF2983120313990083120313080000
:0203EE000034D9
:0203F0000034D7
:02400E00323F3F
:00000001FF
